:020000040800F2
:1000000030100020F15F0008ED010008EF0100084A
:10001000F3010008F7010008FB01000800000000E0
:10002000000000000000000000000000FF010008C8
:100030000102000800000000030200080502000899
:100040000B6000080B6000080B6000080B600008E4
:100050000B6000080B6000080B6000080B600008D4
:100060000B6000080B6000080B6000080B600008C4
:100070000B6000080B6000080B6000080B600008B4
:10008000852B00080B6000080B6000080B6000085F
:100090000B6000080B6000080B6000080B60000894
:1000A0000B6000080B6000080B6000080B60000884
:1000B000874600080B6000080B6000080B60000812
:1000C0000B6000080B6000080B6000080B60000864
:1000D0000B600008393800080B60000817020008A0
:1000E0000B6000080B6000080B6000080B60000844
:1000F0000B6000080B6000080B6000080B60000834
:100100000B6000080B6000080B6000080B60000823
:100110000B6000080B6000080B6000080B60000813
:100120000B6000080B6000080B6000080B60000803
:100130000B6000080B6000080B6000080B600008F3
:100140000B6000080B6000080B6000080B600008E3
:100150000B6000080B6000080B6000080B600008D3
:100160000B6000080B6000080B6000080B600008C3
:100170000B6000080B6000080B6000080B600008B3
:100180000B6000080B600008DFF80CD008F034F9B1
:10019000004800479D010008301000204FF4A06087
:1001A00005F038FFA82003F0DBFC0F4803F05AFDF0
:1001B00003F070FC03F03CFA02F037FE03F03CFE63
:1001C00004F03FF904F0DCF940F2726003F0BBFC8C
:1001D00040F2D66003F0BBFC00F062FE03F0C6FF05
:1001E00001E000F0F1F9FCE720A10700704700BF33
:1001F000FEE700BFFEE700BFFEE700BFFEE7704777
:100200007047704710B506480068401C04490860F4
:1002100000F010F910BD10B503F099FD10BD0000FD
:10022000D80100200CB500200190009076480068AD
:1002300040F480307449086000BF7348006800F4DF
:10024000003000900198401C0190009818B9019866
:10025000B0F5A04FF1D16C48006800F4003010B147
:100260000120009001E0002000900098012846D174
:1002700065484030006840F0805063494031086074
:100280006248006840F44040604908605E480830B9
:1002900000685D49083108600846006840F4004085
:1002A00008600846006840F4A05008605848091FDC
:1002B0000860081F006840F08070091F086000BFD8
:1002C0005148006800F000700028F9D040F2057035
:1002D000504908604C480830006820F003004A4943
:1002E000083108600846006840F00200086000BF5E
:1002F00045480830006800F00C000828F8D10CBD13
:1003000010B54548006840F47000434908603E4815
:10031000006840F001003C49086000203A4908317B
:100320000860394800683D490840374908603C4842
:10033000091D0860081F006820F48020091F08605C
:10034000002031490C310860FFF76CFF4FF000606E
:1003500031498039086010BD70B5002000220223A9
:1003600000240221284D08352D6805F00C0020B12D
:10037000042806D0082834D107E02A4D2A4E3560DB
:1003800033E02A4D284E35602FE01F4D2D1D2D687E
:10039000C5F380541C4D2D1D2D6805F03F0154B14F
:1003A000224DB5FBF1F5184E361D3668C6F388169A
:1003B00005FB06F209E01B4DB5FBF1F5124E361DAB
:1003C0003668C6F3881605FB06F20F4D2D1D2D6805
:1003D000C5F301456D1C6B00B2FBF3F5124E3560A1
:1003E00003E0104D104E356000BF00BF064D0835CC
:1003F0002D68C5F303150E4E705D0B4D2D68C5407D
:10040000094E356070BD00000038024000700040A9
:1004100008544007003C024088ED00E0FFFFF6FE74
:10042000103000240024F4000C00002000127A0098
:10043000100000208D48408A401C8C4948820846A4
:100440008088401C00B288800846C088401C00B2EA
:10045000C88008460089401C00B2088108464089CF
:10046000401C00B2488108468089401C00B2888147
:100470000846C089401C00B2C8810846008A401C5A
:1004800000B2088208460078012804D10846407866
:10049000401C487002E0012074490870704710B594
:1004A00005F085F810BD70477047704710B570486B
:1004B0000078012824D16F48007809281ED2DFE88F
:1004C00000F01D05080B0E1114171A0000F010FFA4
:1004D00015E000F015FF12E000F065FF0FE000F0FE
:1004E000C7FF0CE001F07EF809E001F025F906E015
:1004F00001F0F4FA03E001F01AFC00E000BF00BFD5
:1005000010BD10B55A48007801281BD15A48006820
:1005100008B9012000E0002057490860574991EDD3
:10052000140ABCEEC00A10EE101A88B203F00BFBDE
:10053000524991ED150ABCEEC00A10EE101A88B2AD
:1005400003F005FB10BD10B54D480088401C4C4918
:10055000088003F0FDFE10BD10B50121494805F0EB
:10056000B1FE01280AD001204149087004F03DF88D
:100570004FF47A71B0FBF1F0434908603C480078D1
:1005800008BB4FF48061414805F09CFE012804D06F
:1005900038480078401C374908704FF400613B48E8
:1005A00005F090FE012804D032480078401E314901
:1005B00008704FF48051354805F084FE012802D0C0
:1005C00000202C49087010BD10B52848007801287B
:1005D0004AD1FFF764FF2548B0F90400022804DB84
:1005E000002022498880FFF75EFF2048B0F906000E
:1005F000052804DB00201D49C880FFF755FF1B4874
:10060000B0F908000A2804DB002018490881FFF728
:100610004CFF1648B0F90A00142804DB00201349E7
:100620004881FFF743FF1148B0F90C00322804DB82
:1006300000200E498881FFF764FF0C48B0F90E00D6
:10064000642804DB00200949C881FFF77CFF0748C4
:10065000B0F91000C82804DB002004490882FFF725
:100660007BFF00200149087010BD00000802002037
:10067000000000202200002088024042D402002016
:100680000A00002000000240FC0000200008024098
:10069000B0EE401AFE4890ED000A70EEC01AFD4818
:1006A00090ED002AFC4890ED000A01EE820A80EDF0
:1006B000000A90ED000A31EE400AF84880ED000A89
:1006C000F74890ED010AF748D0ED001A31EEC00A64
:1006D000F348D0ED021A30EE610AF34880ED000ACB
:1006E000EF4890ED030AB1EE400AEF4880ED010AB1
:1006F000EB4890ED030AB1EE400AEB4880ED020AA8
:10070000EA4890ED000AE84880ED030AE44890EDDD
:10071000000AE548D0ED001ADE4890ED002A01EE0F
:10072000820ADF4880ED000A90ED010ADE48D0ED34
:10073000011AD84890ED002A01EE820AD84880EDCF
:10074000010A90ED020AD848D0ED021AD14890ED86
:10075000002A01EE820AD24880ED020A90ED030AD7
:10076000D148D0ED031ACB4890ED002A01EE820A61
:10077000CB4880ED030AD0ED001ACD48007800EE9A
:10078000100AB8EE400A21EE800ACA4880ED000A3D
:10079000C348D0ED021AC648007800EE100AB8EE41
:1007A000400A21EE800AC44880ED000AC34890ED5B
:1007B000000ABF48007801EE900AF8EE611ABD48C1
:1007C00090ED002A01EE820ABD4880ED000AB9488A
:1007D00090ED000ABA48D0ED001A80EE212AB948FF
:1007E00080ED002AB44890ED000AB548D0ED001A1B
:1007F00080EE212AB44880ED002AAE4890ED000A30
:10080000B24880ED000AA648D0ED011AA848007849
:1008100000EE100AB8EE400A21EE800AAC4880EDE6
:10082000000A9F4890ED000AA648D0ED001AA7489C
:1008300090ED002A01EEC20A994880ED000A90ED81
:10084000010AA048D0ED001AA14890ED002A01EE5F
:10085000C20A934880ED010A90ED020A9A48D0ED51
:10086000001A9A4890ED002A01EEC20A8C4880EDE9
:10087000020A90ED030A9448D0ED001A944890EDD6
:10088000002A01EEC20A864880ED030A824890EDF4
:10089000000A8C48D0ED001A804890ED002A01EE45
:1008A000820A7D4880ED000A794890ED000A86486A
:1008B000D0ED001A794890ED002A01EE820A7448C2
:1008C00080ED000A90ED000A30EEC00A814880ED0C
:1008D000000A90ED000A804880ED060A6E4890ED0F
:1008E000000A7047B0EE401A7C4890ED000A70EEA6
:1008F000C01A7B4890ED002A7A4890ED000A01EE7C
:10090000820A80ED000A90ED000A31EE400A764836
:1009100080ED000A754890ED010A7548D0ED001A87
:1009200031EEC00A7148D0ED021A30EE610A71480A
:1009300080ED000A6D4890ED030AB1EE400A6D4863
:1009400080ED010A694890ED030AB1EE400A69485A
:1009500080ED020A684890ED000A664880ED030ABF
:10096000624890ED000A6348D0ED001A5C4890EDB3
:10097000002A01EE820A5D4880ED000A90ED010A2E
:100980005C48D0ED011A564890ED002A01EE820A2B
:10099000564880ED010A90ED020A5648D0ED021A41
:1009A0004F4890ED002A01EE820A504880ED020A7D
:1009B00090ED030A4F48D0ED031A494890ED002A04
:1009C00001EE820A494880ED030AD0ED001A4B4837
:1009D000007800EE100AB8EE400A21EE800A48487E
:1009E00080ED000A4148D0ED021A4448007800EE3C
:1009F000100AB8EE400A21EE800A424880ED000A53
:100A0000414890ED000A3D48007801EE900AF8EE6A
:100A1000611A3B4890ED002A01EE820A3B4880EDC6
:100A2000000A374890ED000A3848D0ED001A80EEF1
:100A3000212A374880ED002A324890ED000A3348D9
:100A4000D0ED001A80EE212A324880ED002A2C4891
:100A500090ED000A304880ED000A2448D0ED011ADC
:100A60002648007800EE100AB8EE400A21EE800A0F
:100A70002A4880ED000A1D4890ED000A2448D0ED78
:100A8000001A254890ED002A01EEC20A174847E0F7
:100A90002C00002040000020280000203000002012
:100AA00064000020340000201C02002038000020D8
:100AB00044000020480000204C0000203C000020A2
:100AC0005000002054000020580000205C0000204E
:100AD00060000020240000203C0200207C00002058
:100AE000900000207800002080000020B40000204A
:100AF000840000202C0200208800002094000020A8
:100B0000980000209C0000208C000020A000002005
:100B1000A4000020A8000020AC000020B0000020AD
:100B200080ED000A90ED010A6148D0ED001A61489D
:100B300090ED002A01EEC20A5F4880ED010A90EDB7
:100B4000020A5E48D0ED001A5D4890ED002A01EEE1
:100B5000C20A594880ED020A90ED030A5748D0EDC9
:100B6000001A544890ED002A01EEC20A524880ED66
:100B7000030A544890ED000A4D48D0ED001A52483F
:100B800090ED002A01EE820A4E4880ED000A4F489F
:100B900090ED000A4948D0ED001A4B4890ED002A2C
:100BA00001EE820A494880ED000A90ED000A30EE1D
:100BB000C00A474880ED000A90ED000A454880EDE4
:100BC000070A404890ED000A7047B0EE401A4248CC
:100BD00090ED000AF7EE001A71EEC01A3F4890ED52
:100BE000000A3F4890ED002A00EE820A21EE800ABA
:100BF0003948D0ED001A01EE810A384880ED000A2C
:100C000090ED000A7047B0EE401A364890ED000AA9
:100C100031EE400A3448D0ED001AB7EE002A72EEE9
:100C2000611A20EE210AD0ED001AB7EE002A72EE0A
:100C3000611A20EE210A2D4880ED000A2C4890ED23
:100C4000000A2A48D0ED001A2A4890ED002A01EE49
:100C5000820A274880ED000A234890ED000AF7EE4B
:100C6000001A31EEC00AF0EE001A60EE211A1D489B
:100C700090ED000A31EE402A1D4890ED000A01EE89
:100C8000820A30EE200A1C4880ED000A154890EDDB
:100C9000000A1948D0ED001A164890ED002A01EE1E
:100CA000820A104880ED000A90ED000A70470000AB
:100CB000A4000020B0000020B4000020A800002004
:100CC000AC00002078000020800000207C00002084
:100CD000740000203C020020C4000020CC00002052
:100CE000C8000020E4000020D0000020D400002034
:100CF000DC000020E0000020D800002070B52DEDC1
:100D00000E8B00248FE002F09BFBFE4890ED0A0A58
:100D100010EE101A084607F0EBF941EC1B0BFA48ED
:100D200090ED000AD0ED020A80EE201A11EE105A62
:100D3000284607F0DDF941EC1E0BB0EE4E0AF0EE4E
:100D40006E0A07F0DDFBB0EE40DAF0EE60DA9FED00
:100D5000EF0B53EC102B51EC1D0B07F039F941EC64
:100D60001C0B53EC1B2B07F02DF941EC190BE5483C
:100D700090ED000A10EE101A084607F0B9F941ECA0
:100D80001A0B53EC192B07F07CF841EC180B07F009
:100D9000F3F9DC490860084690ED0B0A10EE101AD2
:100DA000084607F0A5F941EC1B0BD74890ED010A66
:100DB000D0ED020A80EE201A11EE105A284607F0F4
:100DC00097F941EC1E0BB0EE4E0AF0EE6E0A07F0FA
:100DD00097FBB0EE40DAF0EE60DA9FEDCC0B53EC0F
:100DE000102B51EC1D0B07F0F3F841EC1C0B53ECEE
:100DF0001B2B07F0E7F841EC190BC24890ED010AF4
:100E000010EE101A084607F073F941EC1A0B53EC78
:100E1000192B07F036F841EC180B07F0ADF9B9497A
:100E20004860601CC4B2032CFFF66DAFB54890ED6E
:100E3000000AF0EE080A80EE201A80ED021A90ED0A
:100E4000010AF0EE080A80EE201A80ED031A9FEDE9
:100E5000B10A80ED010A80ED000AAB4890ED081A56
:100E6000B1EE411AF0EE410AA64890ED021AB0EE3A
:100E7000410AFFF70DFCA34880ED040AA24890ED5B
:100E8000071AF0EE410A9F4890ED031AB0EE410AAE
:100E9000FFF728FD9B4880ED050ABDEC0E8B70BD69
:100EA000B2EE080A9C4880ED000AB0EE000A80ED20
:100EB000010AB2EE000A80ED020A9FED980A80ED69
:100EC000100AB2EE040A964880ED000AB7EE000A56
:100ED00080ED010A9FED930A80ED020A9FED8F0AD3
:100EE00080ED100AB2EE080A8B4880ED030AB0EEDE
:100EF000000A80ED040AB2EE000A80ED050A9FEDBB
:100F0000870A80ED110AB2EE040A854880ED030AD3
:100F1000B7EE000A80ED040A9FED820A80ED050A13
:100F20009FED7E0A80ED110A704770B52DED048BA0
:100F300004460D46164600EE104AB8EE400A7148C7
:100F400080ED0C0A00EE105AB8EE400A80ED0D0A52
:100F500075480078401C7449087008460078C82815
:100F600015DB002008709FED6B0A6D4880ED0B0AC1
:100F70009FED680A684880ED0B0A9FED660A684895
:100F800080ED0E0A9FED630A634880ED0E0A674804
:100F9000C08A00EE100AB8EE400A5A48D0ED0C0A9A
:100FA00030EE600A5E4880ED060A90ED060AD0ED4C
:100FB000070A30EE600A80ED120A90ED0B0AD0EDC0
:100FC000060A30EE200AF0EE000A80EE201A80EDCC
:100FD0000B1A90ED010AD0ED0B0A20EE200A80EDED
:100FE0000B0A90ED0B0AD0ED000AF1EE600A90EDCD
:100FF000061A10EE810AD0ED020A90ED121A00EEE8
:10100000C10A80ED140A90ED060A80ED070A4748F0
:10101000C08A47490978401A00EE100AB8EEC00AA3
:101020003D4880ED060A90ED000AD0ED060A20EE5C
:10103000200A80ED0A0A90ED060A3E48D0ED000A2B
:1010400030EE600A3448D0ED020A20EE200A80ED2E
:101050000C0A90ED0A0AD0ED0C0A30EE600A80ED21
:10106000140A90ED060A334880ED000A2F4890EDEF
:10107000010ABCEEC00A10EE100A2D49087026487D
:10108000D0ED140A9FED2C0AB1EE001A01EE600AB1
:101090002348D0ED140A30EE200A1F4880ED140AD0
:1010A00090ED140ADFED250AB4EEE00AF1EE10FA35
:1010B00003DB9FED220A80ED140A174890ED140A15
:1010C000DFED1F0AB4EEE00AF1EE10FA03D89FED4F
:1010D0001C0A80ED140A1548008B00EE100AB8EEC9
:1010E000400A0848D0ED0D0A30EE600A0C4880ED49
:1010F000080A90ED080AD0ED090A30EE600A80ED8A
:10110000130A1FE03C02002098030020000000C0EA
:10111000DCA54C4000000000D40200200000484341
:101120007C0200200000C84280010020F004002062
:1011300098010020880100200040CE4400C0F34404
:1011400000C0A84490ED0E0AD0ED080A30EE200A47
:10115000F0EE000A80EE201A80ED0E1A90ED040ADF
:10116000D0ED0E0A20EE200A80ED0E0A90ED0E0A58
:10117000D0ED030AF1EE600A90ED081A10EE810A34
:10118000D0ED050A90ED131A00EEC10A80ED150AA4
:1011900090ED080A80ED090AF748008BF7490978B5
:1011A000401A00EE100AB8EEC00AF54880ED080AB1
:1011B00090ED030AD0ED080A20EE200A80ED0D0A1A
:1011C00090ED080AEF48D0ED000A30EE600AEC48D6
:1011D000D0ED050A20EE200A80ED0F0A90ED0D0AF1
:1011E000D0ED0F0A30EE600A80ED150A90ED080A86
:1011F000E44880ED000AE04890ED020ABCEEC00A27
:1012000010EE100ADD490870DD48D0ED150A9FED9B
:10121000DE0AB1EE001A01EE600ADC48D0ED150AD4
:1012200030EE200AD64880ED150A90ED150A5FEDE4
:101230003D0AB4EEE00AF1EE10FA03DB1FED410ABD
:1012400080ED150ACE4890ED150ADFEDD10AB4EE17
:10125000E00AF1EE10FA03D89FEDCD0A80ED150AF1
:10126000CA4890ED060A10EE101A084606F040FF34
:1012700041EC190BB0EE490AF0EE690A07F010FBD9
:10128000B0EE408AF0EE608A9FEDC20B53EC102B5B
:1012900051EC180B06F040FF27D8BC4890ED080A27
:1012A00010EE101A084606F023FF41EC190BB0EEC1
:1012B000490AF0EE690A07F0F3FAB0EE408AF0EE60
:1012C000608A9FEDB40B53EC102B51EC180B06F019
:1012D00023FF0AD8012E08D19FEDAB0AA84880ED64
:1012E000150A1FED6B0A80ED140ABDEC048B70BD6E
:1012F00010B5A14A117E907D0122FFF716FE10BDA8
:1013000010B52DED048B9C49C98AA44A1278881A1D
:1013100006F0D0FE41EC190BB0EE490AF0EE690A76
:1013200007F0BEFAB0EE408AF0EE608A9FED9C0BAB
:1013300053EC102B51EC180B06F0EEFE25D88E491D
:10134000098B994A1278881A06F0B4FE41EC190B01
:10135000B0EE490AF0EE690A07F0A2FAB0EE408A50
:10136000F0EE608A9FED8E0B53EC102B51EC180BB6
:1013700006F0D2FE09D8894909781439C8B200228A
:1013800089490978FFF7D1FD0AE0884A1278921E50
:10139000D1B2874A1278921ED0B20122FFF7C5FD62
:1013A000BDEC048B10BD10B52DED048B8148007889
:1013B00001284FD001228048017880480078FFF74B
:1013C000B4FD6D49C98A7D4A1278881A06F072FE0A
:1013D00041EC190BB0EE490AF0EE690A07F060FA29
:1013E000B0EE408AF0EE608A9FED750B53EC102B47
:1013F00051EC180B06F090FE21D85F49098B6E4A1C
:101400001278881A06F056FE41EC190BB0EE490A24
:10141000F0EE690A07F044FAB0EE408AF0EE608A16
:101420009FED670B53EC102B51EC180B06F074FE7C
:1014300005D865480078401C6349087002E0002028
:10144000614908706048007896280EDB01205949F0
:1014500008700AE0554A1278921ED1B2544A1278A6
:10146000921ED0B20122FFF760FDBDEC048B10BDCF
:1014700010B52DED048B4049C98A484A1278881A64
:1014800006F018FE41EC190BB0EE490AF0EE690ABD
:1014900007F006FAB0EE408AF0EE608A9FED400B4E
:1014A00053EC102B51EC180B06F036FE25D83249C0
:1014B000098B3D4A1278881A06F0FCFD41EC190BA5
:1014C000B0EE490AF0EE690A07F0EAF9B0EE408A98
:1014D000F0EE608A9FED320B53EC102B51EC180BA1
:1014E00006F01AFE09D82D4909780F39C8B2002232
:1014F0002D490978FFF719FD3AE01F48C18A3348A2
:101500000078801C81420FDD1B48C08A3049097871
:10151000884209DD2D490978491DC8B200222C49AD
:101520000978FFF702FD23E01348C18A29480078B3
:10153000401D814211DD1048C08A27490978884240
:101540000BDD254A1278521FD1B2224A1278521F5F
:10155000D0B20022FFF7E9FC0AE0204A1278521EBE
:10156000D1B21F4A1278D21ED0B20122FFF7DDFCA1
:10157000BDEC048B10BD0000F00400209901002098
:10158000D40200208C0100200080D4447C02002082
:101590000000AF4400000000000022400C010020C9
:1015A00000000000000020400D0100201501002077
:1015B000140100203201002013010020120100203C
:1015C0000000000000001C409A01002033010020B0
:1015D0003401002035010020360100201D010020CB
:1015E0001C01002010B52DED048BFB48007801286C
:1015F00045D0FA490978091FC8B20022F84909788C
:10160000FFF793FCF749C98AF44A1278881A06F062
:1016100051FD41EC190BB0EE490AF0EE690A07F0F2
:101620003FF9B0EE408AF0EE608A9FEDEF0B53EC8D
:10163000102B51EC180B06F06FFD20D8E949098BEF
:10164000E74A1278881A06F035FD41EC190BB0EE26
:10165000490AF0EE690A07F023F9B0EE408AF0EE8D
:10166000608A9FEDE30B53EC102B51EC180B06F046
:1016700053FD04D80120D8490870DF490870DE48BE
:101680000078012846D1DD490978C91EC8B2002278
:10169000DB490978FFF749FCD249C98AD74A127851
:1016A000881A06F007FD41EC190BB0EE490AF0EE7E
:1016B000690A07F0F5F8B0EE408AF0EE608A9FED17
:1016C000CA0B53EC102B51EC180B06F025FD21D85A
:1016D000C449098BCA4A1278881A06F0EBFC41EC1F
:1016E000190BB0EE490AF0EE690A07F0D9F8B0EE2E
:1016F000408AF0EE608A9FEDBC0B53EC102B51EC4E
:10170000180B06F009FD05D80020BB490870012020
:10171000BC490870BB48007801280AD1BA4A12783F
:10172000D21ED1B2B94A1278D21ED0B20122FFF72E
:10173000FCFBBDEC048B10BD00B52DED048B81B01E
:10174000B3480078002860D10CE0B2480068401C23
:10175000B049086000BF4FF48061AF4804F0B2FDAB
:101760000028F8D04FF48061AB4804F0ABFD0028AE
:10177000EBD00CE0A7480068401EA649086000BFF7
:101780004FF40061A44804F09DFD0028F8D04FF408
:101790000061A14804F096FD0028EBD012E09D48BE
:1017A00000789E499E4A126888549D480068401CF3
:1017B0009B49086000BF4FF48051974804F082FDB8
:1017C0000028F8D04FF48051934804F07BFD0028A6
:1017D000E5D00C20042300908E48002102683220BE
:1017E00002F0F1FC0C20042300908D4810210268C7
:1017F000322002F0E8FC02F0A1FB894800680428CE
:1018000002DB01208249087064E17649C98A834A73
:101810001278844B9A5C881A06F04CFC41EC190B48
:10182000B0EE490AF0EE690A07F03AF8B0EE408AE5
:10183000F0EE608A9FED6C0B53EC102B51EC180B03
:1018400006F082FC2CD86749098B744A1278764BD3
:101850009A5C881A06F02EFC41EC190BB0EE490A8E
:10186000F0EE690A07F01CF8B0EE408AF0EE608AEC
:101870009FED5D0B53EC102B51EC180B06F064FC44
:101880000ED86A48007858B9644A1278664B995C59
:10189000624A1278634B985C0022FFF746FB19E11D
:1018A0005049C98A5D4A52785E4B9A5C881A06F0A4
:1018B00001FC41EC190BB0EE490AF0EE690A06F0A2
:1018C000EFFFB0EE408AF0EE608A9FED470B53ECDD
:1018D000102B51EC180B06F037FC2FD84149098B1F
:1018E0004E4A5278504B9A5C881A06F0E3FB41EC62
:1018F000190BB0EE490AF0EE690A06F0D1FFB0EE1E
:10190000408AF0EE608A9FED380B53EC102B51ECBF
:10191000180B06F019FC11D84548007870B93F4AF9
:101920005278414B995C3D4A52783E4B985C00227C
:10193000FFF7FBFA01203D490870CBE02949C98A2D
:10194000364A9278374B9A5C881A06F0B3FB41EC22
:10195000190BB0EE490AF0EE690A06F0A1FFB0EEED
:10196000408AF0EE608A9FED200B53EC102B51EC77
:10197000180B06F0E9FB60D81A49098B274A9278C0
:10198000294B9A5C881A06F095FB41EC190BB0EED6
:10199000490AF0EE690A06F083FFB0EE408AF0EEE5
:1019A000608A9FED110B53EC102B51EC180B06F0D5
:1019B000CBFB42D81F480078F0BB184A92781A4BEC
:1019C000995C164A9278174B985C0022FFF7ADFAA3
:1019D0000120174908707DE0370100200E0100202A
:1019E0000F010020F004002000000000000018405B
:1019F0000000000000001440380100201601002003
:101A000017010020390100201D0100201C010020C9
:101A10005F0100209C0100200008024064010020BA
:101A2000A00100201E0100202801002060010020EC
:101A30006101002062010020FFE7FA49C98AFA4AE1
:101A4000D278FA4B9A5C881A06F034FB41EC190BF9
:101A5000B0EE490AF0EE690A06F022FFB0EE408AC5
:101A6000F0EE608A1FED200B53EC102B51EC180B9D
:101A700006F06AFB2ED8EB49098BEB4AD278EC4B87
:101A80009A5C881A06F016FB41EC190BB0EE490A75
:101A9000F0EE690A06F004FFB0EE408AF0EE608ACC
:101AA0001FED2F0B53EC102B51EC180B06F04CFBD9
:101AB00010D8E048007868B9DB4AD278DC4B995CF2
:101AC000D94AD278D94B985C0122FFF72EFA01202F
:101AD000D949087001B0BDEC048B00BD10B52DEDE7
:101AE0000C8BD049C98AD54A1278881A06F0E2FAD6
:101AF00041EC190BB0EE490AF0EE690A06F0D0FE8F
:101B0000B0EE408AF0EE608A9FEDCD0B53EC102BC7
:101B100051EC180B06F000FB26D8C249098BCA4AC3
:101B20001278881A06F0C6FA41EC190BB0EE490A91
:101B3000F0EE690A06F0B4FEB0EE408AF0EE608A7C
:101B40001FED550B53EC102B51EC180B06F0E4FA7B
:101B50000AD8BE48007838B90022BD480178BD488F
:101B60000078FFF7E2F9DFE0BB48007800287DD17C
:101B70000120B6490870B948007840B9B5490978DC
:101B80001E31C8B20022B2490978FFF7CEF9B44934
:101B90000988642291FBF2F000EBD0714910A0EBB0
:101BA000410111B90120AD490870AC480078012805
:101BB0007ED1AC480088401CAA490880A84800880B
:101BC000400000EE100AB8EEC00ADFEDA70A60EE92
:101BD000200AA648008800EE100AB8EE400A80EEFF
:101BE000801A11EE104A204606F082FA41EC1D0BD5
:101BF000B0EE4D0AF0EE6D0A06F0EEFDB0EE40BA22
:101C0000F0EE60BA9A48007806F065FA41EC1C0BD9
:101C100053EC1B2B06F0DCF941EC190B8D480078D6
:101C200006F059FA41EC1A0B53EC192B06F029F97E
:101C300041EC180B06F0A0FA8E490860884800882D
:101C40002D30400000EE100AB8EEC00ADFED860A23
:101C500060EE200A8548008800EE100AB8EE400ABF
:101C600080EE801A11EE104A204600E049E006F0AE
:101C70003FFA41EC1D0BB0EE4D0AF0EE6D0A06F096
:101C80001BFEB0EE40BAF0EE60BA7948007806F07C
:101C900022FA41EC1C0B53EC1B2B06F099F941EC9A
:101CA000190B6B48007806F016FA41EC1A0B00E0AD
:101CB0001CE053EC192B06F0E4F841EC180B06F08D
:101CC0005BFA6D4908600A4692ED000ABCEEC00A54
:101CD00010EE102AD1B2674A92ED000ABCEEC00A9B
:101CE00010EE102AD0B20122FFF71FF95D480088DC
:101CF000B0F5FA6F18DB012060490870564908708A
:101D000012E05E48007801280ED15348007801287F
:101D10000AD15B4A1278D21ED1B25A4A1278121FE7
:101D2000D0B20122FFF701F9BDEC0C8B10BD10B54C
:101D30003C4A92F8221092F820000022FFF7F5F8B2
:101D400010BD03B587B00798012802D00798022874
:101D500065D101204C4908704C4908700898012849
:101D600002D0089802280CD149490898085C4949D2
:101D700005900898085C012204900599FFF7D5F8B2
:101D800007E20898032802D00898042848D13F4861
:101D90000078012845D14048007805903F480078F8
:101DA000012204900599FFF7C0F81E48C08A3B49FC
:101DB0000978401A019006F07DF9CDE902019DED08
:101DC000020B06F06DFD8DED040B9FED350B53EC12
:101DD000102B9DED040B51EC100B06F09DF9CFD8A4
:101DE0001048008B2C490978401A019006F062F9DE
:101DF000CDE902019DED020B06F052FD8DED040BC5
:101E00009FED270B53EC102B9DED040B51EC100BA9
:101E100006F082F9B4D800201C490870B0E760E1F0
:101E20004FE041E0F0040020640100201E0100208A
:101E3000280100206301002062010020120100201F
:101E40000000000000001040130100207401002079
:101E500015010020140100207501002076010020EA
:101E60000A000020A4010020DB0F49406801002087
:101E70006A0100206C010020700100207701002021
:101E80001D0100201C0100205E0100205B010020DC
:101E9000430100203A010020500100204C010020A5
:101EA0000000000000002040F8490898085CF8494C
:101EB00005900898085C012204900599FFF735F811
:101EC0005EE70898052802D0089806287ED1F148D8
:101ED0000078012846D1F04800780590EF48007856
:101EE000012204900599FFF720F8ED48C08AEB49DC
:101EF0000978401A019006F0DDF8CDE902019DED68
:101F0000020B06F0CDFC8DED040B1FED1B0B53EC0B
:101F1000102B9DED040B51EC100B06F0FDF8CFD803
:101F2000DF48008BDC490978401A019006F0C2F8BE
:101F3000CDE902019DED020B06F0B2FC8DED040B24
:101F40001FED290B53EC102B9DED040B51EC100BE6
:101F500006F0E2F8B4D80020CE4908700120D1493B
:101F600008700DE7CF480078012845D1CA4840786D
:101F70000590CA484078012204900599FEF7D5FFE4
:101F8000C748C08AC5494978401A019006F092F8BE
:101F9000CDE902019DED020B06F082FC8DED040BF4
:101FA0001FED410B53EC102B9DED040B51EC100B6E
:101FB00006F0B2F884D8BA48008BB7494978401A7D
:101FC000019006F077F8CDE9020100E021E09DEDF7
:101FD000020B06F065FC8DED040B1FED4F0B53EC6F
:101FE000102B9DED040B51EC100B06F095F8B8D8B2
:101FF0000020AC490870C3E6A4490898085CA449CD
:1020000005900898085C012204900599FEF78DFF61
:10201000B6E60898072802D00898082854D1A248A4
:102020000078012843D19C48807805909B488078AF
:10203000012204900599FEF778FF9948C08A9749D4
:102040008978401A019006F035F8CDE902019DED3E
:10205000020B06F025FC8DED040B1FED6F0B53EC0E
:10206000102B9DED040B51EC100B06F055F8C2D867
:102070008B48008B88498978401A019006F01AF83D
:10208000CDE902019DED020B06F00AFC8DED040B7B
:102090001FED7D0B53EC102B9DED040B51EC100B41
:1020A00006F03AF8A7D800207F49087068E677491B
:1020B0000898085C764905900898085C012204900D
:1020C0000599FEF732FF5BE670490898085C704995
:1020D00005900898085C012204900599FEF725FFF9
:1020E0004EE60798032802D00798042872D10120F1
:1020F0006E490870674908700898012802D008984E
:10210000022854D163480078012843D162480078FE
:10211000059062480078012204900599FEF705FFBA
:102120005F48C08A5D490978401A019005F0C2FFF6
:10213000CDE902019DED020B06F0B2FB8DED040B23
:102140001FEDA90B53EC102B9DED040B51EC100B64
:1021500005F0E2FFAAD85248008B4F490978401A8F
:10216000019005F0A7FFCDE902019DED020B06F0FD
:1021700097FB8DED040B1FEDB60B53EC102B9DED73
:10218000040B51EC100B05F0C7FF8FD8002041491C
:10219000087043E23D490898085C3D49059008985D
:1021A000085C012204900599FEF7BFFE36E208980C
:1021B000032802D0089804280DD134490898085CF7
:1021C000334905900898085C012204900599FEF7B0
:1021D000ACFE23E221E10898052802D008980628E1
:1021E00066D130480078012843D12B4840780590CB
:1021F0002A484078012204900599FEF796FE284867
:10220000C08A26494978401A019005F053FFCDE96C
:1022100002019DED020B06F043FB8DED040B1FED5B
:10222000E00B53EC102B9DED040B51EC100B05F063
:1022300073FFAED81A48008B17494978401A0190AD
:1022400005F038FFCDE902019DED020B06F028FBF9
:102250008DED040B1FEDEE0B53EC102B9DED040BDD
:1022600051EC100B05F058FF93D800200D49087071
:10227000F6E306490898085C054905900898085C4B
:10228000012204900599FEF750FEE9E34301002086
:102290003A0100205B010020500100204C01002089
:1022A000F00400205C0100205E0100205D010020A0
:1022B0000898072802D0089808287CD1FE480078A2
:1022C000012846D1FD4840780590FD48407801221C
:1022D00004900599FEF729FEFA48C08AF849497822
:1022E000401A019005F0E6FECDE902019DED020BDA
:1022F00006F0D6FA8DED040B9FEDF30B53EC102B8B
:102300009DED040B51EC100B05F006FFB0D8ED4825
:10231000008BEA494978401A019005F0CBFECDE9DF
:1023200002019DED020B06F0BBFA8DED040B9FED53
:10233000E60B53EC102B9DED040B51EC100B05F04C
:10234000EBFE95D80020DC4908700120E0490870B8
:1023500086E3DF480078012845D1D8488078059089
:10236000D7488078012204900599FEF7DEFDD54814
:10237000C08AD3498978401A019005F09BFECDE9C7
:1023800002019DED020B06F08BFA8DED040B9FED23
:10239000CE0B53EC102B9DED040B51EC100B05F004
:1023A000BBFED5D8C748008BC4498978401A019034
:1023B00005F080FE00E023E0CDE902019DED020B77
:1023C00006F06EFA8DED040B9FEDBF0B53EC102B56
:1023D0009DED040B51EC100B05F09EFEB8D80020CB
:1023E000BB4908703CE3BB490898085CBA490590B2
:1023F0000898085C012204900599FEF796FD2FE3EA
:10240000B4490898085CB44905900898085C012212
:1024100004900599FEF789FD22E30798052802D06C
:10242000079806287ED10120A9490870A2490870A2
:102430000898012802D00898022874D19E48007894
:10244000012846D19D48407805909D48407801225A
:1024500004900599FEF769FD9A48C08A9849497821
:10246000401A019005F026FECDE902019DED020B18
:1024700006F016FA8DED040B9FED930B53EC102B29
:102480009DED040B51EC100B05F046FEAAD88D48CB
:10249000008B8A494978401A019005F00BFECDE97E
:1024A00002019DED020B06F0FBF98DED040B9FED93
:1024B000860B53EC102B9DED040B51EC100B05F02B
:1024C0002BFE8FD800207C490870012083490870BA
:1024D000C6E282480078012846D178480078059005
:1024E00077480078012204900599FEF71EFD754893
:1024F000C08A73490978401A019005F0DBFDCDE9E7
:1025000002019DED020B06F0CBF98DED040B9FED62
:102510006E0B53EC102B9DED040B51EC100B05F0E2
:10252000FBFD01E01AE12CE0D2D86648008B63493C
:102530000978401A019005F0BDFDCDE902019DED3D
:10254000020B06F0ADF98DED040B9FED5F0B53EC24
:10255000102B9DED040B51EC100B05F0DDFDB7D8F1
:1025600000205E4908707BE25A490898085C5A4985
:1025700005900898085C012204900599FEF7D5FCA7
:102580006EE20898032802D00898042854D14A48DB
:102590000078012843D14948407805904848407860
:1025A000012204900599FEF7C0FC4648C08A4449C0
:1025B0004978401A019005F07DFDCDE902019DEDBD
:1025C000020B06F06DF98DED040B9FED3F0B53EC04
:1025D000102B9DED040B51EC100B05F09DFDC2D8A6
:1025E0003848008B35494978401A019005F062FD62
:1025F000CDE902019DED020B06F052F98DED040BC1
:102600009FED310B53EC102B9DED040B51EC100B97
:1026100005F082FDA7D800202749087020E22D4947
:102620000898085C2C4905900898085C01220490E1
:102630000599FEF77AFC13E20898052802D008985D
:1026400006280CD123490898085C2349059008986E
:10265000085C012204900599FEF767FC00E20898E7
:10266000072802D0089808286BD11D480078012857
:102670005AD11248C07805901148C07801220490C0
:102680000599FEF752FC0F48C08A0D49C978401AD7
:10269000019005F00FFDCDE902019DED020B06F062
:1026A000FFF88DED040B9FED080B53EC102B9DED07
:1026B000040B51EC100B15E05C01002050010020D0
:1026C0004C010020F0040020000000000000204029
:1026D0005D010020430100203A0100205B01002041
:1026E0005E01002005F018FD98D8DE48008BDE4919
:1026F000C978401A019005F0DDFCCDE902019DED9D
:10270000020B06F0CDF88DED040B1FED110B53EC11
:10271000102B9DED040B51EC100B05F0FDFC8AD83D
:102720000020D24908709BE1D1490898085CD14942
:1027300005900898085C012204900599FEF7F5FBC6
:102740008EE1CB490898085CCA4905900898085C56
:10275000012204900599FEF7E8FB81E10120C349BD
:102760000870C54908700898012802D00898022806
:1027700054D1BE480078012843D1BB48C0780590A9
:10278000BE48C078012204900599FEF7CEFBB548FB
:10279000C08ABA49C978401A019005F08BFCCDE98E
:1027A00002019DED020B06F07BF88DED040B1FED91
:1027B0003A0B53EC102B9DED040B51EC100B05F074
:1027C000ABFCB0D8A748008BA749C978401A019044
:1027D00005F070FCCDE902019DED020B06F060F8FA
:1027E0008DED040B1FED480B53EC102B9DED040BEE
:1027F00051EC100B05F090FC95D800209B49087017
:102800002EE19B490898085C9A4905900898085C55
:10281000012204900599FEF788FB21E1089803281E
:1028200002D0089804287CD190480078012846D12D
:102830008D48C07805909148C07801220490059990
:10284000FEF773FB8748C08A8C49C978401A01900B
:1028500005F030FCCDE902019DED020B06F020F8F9
:102860008DED040B1FED680B53EC102B9DED040B4D
:1028700051EC100B05F050FCC2D87A48008B7A4915
:10288000C978401A019005F015FCCDE902019DEDD3
:10289000020B06F005F88DED040B1FED750B53ECE4
:1028A000102B9DED040B51EC100B05F035FC05D8F9
:1028B00000206E490870012071490870D0E070480E
:1028C0000078012845D16848007805906B48007869
:1028D000012204900599FEF728FB6248C08A6749E7
:1028E0000978401A019005F0E5FBCDE902019DED64
:1028F000020B05F0D5FF8DED040B1FED8D0B53EC96
:10290000102B9DED040B51EC100B05F005FC1FD8AE
:102910005448008B54490978401A019005F0CAFBCD
:1029200000E023E0CDE902019DED020B05F0B8FFC8
:102930008DED040B1FED9C0B53EC102B9DED040B48
:1029400051EC100B05F0E8FB02D800204C49087050
:1029500086E047490898085C464905900898085C55
:10296000012204900599FEF7E0FA79E0089805281D
:1029700002D00898062854D13F480078012843D156
:102980003948807805903D48807801220490059967
:10299000FEF7CBFA3348C08A38498978401A01904B
:1029A00005F088FBCDE902019DED020B05F078FFF3
:1029B0008DED040B1FEDBC0B53EC102B9DED040BA8
:1029C00051EC100B05F0A8FB4AD82648008B26498D
:1029D0008978401A019005F06DFBCDE902019DED6B
:1029E000020B05F05DFF8DED040B1FEDC90B53ECE1
:1029F000102B9DED040B51EC100B05F08DFB2FD827
:102A000000201D4908702BE019490898085C1949F5
:102A100005900898085C012204900599FEF785FA54
:102A20001EE00898072802D0089808280CD1104901
:102A30000898085C0F4905900898085C01220490EA
:102A40000599FEF772FA0BE009490898085C0949F4
:102A500005900898085C012204900599FEF765FA34
:102A600009B000BDF0040020500100205E010020EC
:102A7000430100203A0100205D0100204C010020AC
:102A80005B01002000B58FB001219F4803F056FE86
:102A90000121480403F09BFE072203219B4803F019
:102AA0003AFC08200D9002208DF8380000208DF8A7
:102AB0003A0003208DF8390000208DF83B000DA965
:102AC000924803F09DFB924803F08CFF91480990D7
:102AD0000020ADF82800ADF82A004FF48060ADF872
:102AE0002C000420ADF82E000020ADF8300009A91C
:102AF000874803F0DEFF0121854804F062F80122D7
:102B00004021834804F00AF910208DF83800012094
:102B10008DF839008DF83A008DF83B000EA803F0CF
:102B20007EFA7D4804F088F94FF000600090784804
:102B3000001D01907948029000200390122004901B
:102B4000002005904FF480600690002007900890C8
:102B50004FF4807009904FF440300A9000200B90A1
:102B60000C900D900E9069466B4804F007FA012214
:102B70001021694804F0C9FA0121674804F038FAC5
:102B80000FB000BD10B56649634804F0DBFA0028B9
:102B900075D06449604804F0A4FA61495E4804F0C5
:102BA000FBFA5E4800785D49497840EA0120C0F3AD
:102BB0000A005D49088059484078C0105749897813
:102BC00040EA4110C0F30A005749488053488078D2
:102BD00080115249C97840EA81005049097940EA98
:102BE0008120C0F30A005049C8804C480079401049
:102BF0004A49497940EAC110C0F30A004A4988802D
:102C00004648407900118008087244484079C0F372
:102C100001104872414880794049C97940EA012051
:102C200000B2414948813D48007A3C49497A40EA2E
:102C3000012001B23C4881813848807A3749C97AFD
:102C400040EA012001B23848C1813448017B36484E
:102C500001743248417B344841743048807B2F49AD
:102C6000C97B40EA0120304948820846008840F28A
:102C70009461884204DD08462B49088009E041E060
:102C800029480088B0F5B67F03DA4FF4B6702649BC
:102C900008802548008840F29461884203DD084698
:102CA0002149488008E020484088B0F5B67F03DA23
:102CB0004FF4B6701C4948801B48C08840F29461AC
:102CC000884203DD08461849C88008E01648C088D5
:102CD000B0F5B67F03DA4FF4B6701349C8801248D6
:102CE000808840F29461884203DD08460E4988805E
:102CF00008E00D488088B0F5B67F03DA4FF4B6706F
:102D00000949888010BD0000010020000000024039
:102D100000440040A0860100886002406803002053
:102D200000880020000800208203002030B58BB00E
:102D3000044600BF0121042003F049FD01210220C7
:102D400003F0FCFC02220621A54803F0E4FA02226B
:102D50000721A34803F0DFFA02220821A04803F06C
:102D6000DAFA022209219E4803F0D5FA4FF4707076
:102D7000099002208DF8280003208DF829000020FA
:102D80008DF82A0001208DF82B0009A9944803F042
:102D900037FA94480068410842F210706043B1FB72
:102DA000F0F0401E85B2ADF818500020ADF81A00C2
:102DB00042F2107007900020ADF8200006A98A4862
:102DC00004F0BBFA6020ADF804000120ADF8060065
:102DD0000020ADF8100001A9834804F043FB01A9CD
:102DE000814804F078FB01A97F4804F0C1FB01A9E8
:102DF0007D4804F023FC08217B4804F0C0FC082136
:102E0000794804F0C5FC0821774804F0CEFC08217D
:102E1000754804F0D3FC0121734804F0F9FA01214C
:102E2000714804F013FB0BB030BD10B54FF47A704D
:102E3000FFF77CFF10BD30B58BB0044600BF012109
:102E4000022003F0C4FC0121042003F077FC0222DD
:102E50000621664803F05FFA02220721634803F067
:102E60005AFA02220821614803F055FA0222092188
:102E70005E4803F050FA4FF47070099002208DF80C
:102E8000280003208DF8290000208DF82A00012059
:102E90008DF82B0009A9554803F0B2F95148006894
:102EA000410842F210706043B1FBF0F0401E85B261
:102EB000ADF818500020ADF81A0042F210700790DB
:102EC0000020ADF8200006A9494804F036FA602039
:102ED000ADF804000120ADF806000020ADF81000A8
:102EE00001A9434804F0BEFA01A9414804F0F3FAED
:102EF00001A93F4804F03CFB01A93D4804F09EFBBA
:102F000008213B4804F03BFC0821394804F040FC10
:102F10000821374804F049FC0821354804F04EFCEC
:102F20000121334804F074FA0121314804F08EFA8B
:102F30000BB030BD30B5002809DB00EB8004640025
:102F4000294D34352C6000242D1D2C6008E0002410
:102F5000254D34352C6000EB800464002D1D2C6061
:102F6000002909DB01EB810464001F4D3C352C6016
:102F700000242D1D2C6008E000241B4D3C352C60E6
:102F800001EB810464002D1D2C60002A09DB02EB9B
:102F900082046400164D34352C6000242D1D2C60F5
:102FA00008E00024124D34352C6002EB82046400EA
:102FB0002D1D2C60002B09DB03EB830464000C4DFA
:102FC0003C352C6000242D1D2C6008E00024084DA9
:102FD0003C352C6003EB830464002D1D2C6030BD58
:102FE000000402400C0000200008004000080240DD
:102FF0000004004010B501F085FB0123FE4A752155
:10300000D02001F0BEFC28B9FB480078682803D026
:10301000FF2010BDFF20FCE703226B21D02001F030
:103020008EFCFF2800D1F4E703221A21D02001F002
:1030300086FCFF2800D1ECE700221921D02001F006
:103040007EFCFF2800D1E4E710221B21D02001F0F4
:1030500076FCFF2800D1DCE701221C21D02001F002
:103060006EFCFF2800D1D4E702223721D02001F0E6
:1030700066FCFF2800D1CCE700223821D02001F0E7
:103080005EFCFF2800D1C4E700226A21D02001F0B5
:1030900056FCFF2800D1BCE74FF4FA7000F0C2FDE7
:1030A0000020B6E710B502E0C82000F0BBFDFFF736
:1030B000A1FFFF28F8D010BD2DE9F04104460D46D0
:1030C00016461F463B4632462946204601F059FC2B
:1030D000FF2801D1BDE8F0810020FBE72DE9F04396
:1030E00004460D46DDE9076700200021012041E08C
:1030F000DFF808C33CF81080A0F1010CDFF8FC9267
:1031000029F81C8009F1160C3CF81090A0F1010C74
:10311000DFF8E88208F1160828F81C9008F1160C70
:103120003CF81090A0F1010C08F1160828F81C904A
:1031300008F1160C3CF81090A0F1010C08F11608EB
:1031400028F81C9008F1160C3CF81090A0F1010C26
:1031500008F1160828F81C9008F1160C3CF810909D
:10316000A0F1010C08F1160828F81C9000F1010CE0
:103170000CF0FF000A28BBDBDFF880C2ACF812407D
:10318000ACF82850ACF83E20ACF85430ACF86A608B
:10319000ACF88070002008E0DFF860C23CF910C095
:1031A000614400F1010C0CF0FF000A28F4DB4FF041
:1031B0000A0C91FBFCFC0FFA8CFCDFF84082A8F8AB
:1031C00014C0002100200AE0DFF830C20CF1160C18
:1031D0003CF910C0614400F1010C0CF0FF000A281A
:1031E000F2DB4FF00A0C91FBFCFC0FFA8CF8DFF8D5
:1031F0000CC2ACF82A80002100200AE0DFF8FCC1F4
:103200000CF12C0C3CF910C0614400F1010C0CF0E5
:10321000FF000A28F2DB4FF00A0C91FBFCFC0FFACE
:103220008CF8DFF8D8C1ACF84080002100200AE01B
:10323000DFF8C8C10CF1420C3CF910C0614400F148
:10324000010C0CF0FF000A28F2DB4FF00A0C91FB96
:10325000FCFC0FFA8CF8DFF8A4C1ACF85680002112
:1032600000200AE0DFF894C10CF1580C3CF910C0C2
:10327000614400F1010C0CF0FF000A28F2DB4FF072
:103280000A0C91FBFCFC0FFA8CF8DFF870C1ACF86B
:103290006C80002100200AE0DFF860C10CF16E0CA8
:1032A0003CF910C0614400F1010C0CF0FF000A2849
:1032B000F2DB4FF00A0C91FBFCFC0FFA8CF8DFF804
:1032C0003CC1ACF88280BDE8F0834D48007800280E
:1032D0004FD04C480088401C4A4908804A48006842
:1032E0004649B1F914100844474908600846416846
:1032F0004248B0F92A0008444349486008468168BA
:103300003E48B0F9400000F5804008443E498860DE
:103310003C48008832282CDB084690ED000AB8EEC5
:10332000C00ADFED3A0A80EE201A394880ED031A10
:10333000084690ED010AB8EEC00ADFED340A80EECF
:10334000201A334880ED041A084690ED020AB8EEC0
:10335000C00ADFED2E0A80EE201A2D4880ED051AF6
:10336000002028490880264908702749886048605D
:10337000086028480078002861D027480088401C51
:10338000254908802048C1681C48B0F95600084407
:103390001D49C860084601691848B0F96C0001442D
:1033A0001948016141691548B0F982000144164885
:1033B000416119480088322841DB134890ED030A27
:1033C000B8EEC00ADFED110A80EE201A104880ED39
:1033D0000D1A0D4890ED040AB8EEC00ADFED0B0A95
:1033E00080EE201A0A4880ED0E1A074890ED050A73
:1033F000B8EEC00A12E00000A8010020040400207A
:10340000BD010020BA010020D8040020000048427D
:1034100098030020BC010020B80100205FED050AE0
:1034200080EE201A734880ED0F1A00207249088040
:10343000724908700021724841610161C1607047A2
:103440001CB50E236F4A3B21D020FFF735FE6D4897
:1034500040786C49097840EA012000B26A49088046
:103460006848C0786749897840EA012000B2674916
:103470000880644840796349097940EA012000B234
:10348000634908805F48407A5E49097A40EA012032
:1034900000B2604908805B48C07A5A49897A40EA9C
:1034A000012000B25C4908805648407B5549097BA1
:1034B00040EA012000B2594908800846B0F90000EE
:1034C0005549B1F90010CDE900105248B0F900306B
:1034D0004F48B0F900204D48B0F900104A48B0F903
:1034E0000000FFF7FBFDFFF7F0FE4D48B0F91400B8
:1034F00000EE100AB8EEC00A3E48D0ED030A30EEE6
:10350000600A80ED000A4648B0F92A0000EE100A71
:10351000B8EEC00A3748D0ED040A30EE600A80EDFC
:10352000010A3F48B0F9400000EE100AB8EEC00AA8
:103530003048D0ED050A30EE600A80ED020A3848C6
:10354000B0F9560000EE100AB8EEC00A2948D0EDD6
:103550000D0A30EE600ADFED330A20EE200A80ED1E
:10356000070A2F48B0F96C0000EE100AB8EEC00A46
:103570002048D0ED0E0A30EE600ADFED2A0A20EE78
:10358000200A80ED080A2648B0F9820000EE100AF1
:10359000B8EEC00A1748D0ED0F0A30EE600ADFED32
:1035A000210A20EE200A80ED090A90ED070ADFEDDE
:1035B0001E0A20EE200ADFED1D0A80EE201A80EDA3
:1035C0000A1A90ED080ADFED180A20EE200ADFED56
:1035D000170A80EE201A80ED0B1A90ED090ADFED34
:1035E000120A20EE200ADFED110A80EE201A80ED8B
:1035F0000C1A1CBD98030020B8010020BC0100205B
:10360000D8040020F0030020BE010020C0010020EB
:10361000C2010020C4010020C6010020C801002012
:10362000040400200000FA3CDA0F49400000344353
:1036300000B587B00121084603F080F80121102071
:1036400003F0D6F807220921FE4802F064FE0722A3
:103650000A21FC4802F05FFE4FF4C0600590022092
:103660008DF818008DF8190000208DF81A0001203F
:103670008DF81B0005A9F34802F0C2FDF248019045
:103680000020ADF80800ADF80A00ADF80C00ADF868
:1036900010000C20ADF80E0001A9EC4803F009FA67
:1036A0000121EA4803F08DFA4021E84803F071FB5C
:1036B000012240F22551E54803F039FB25208DF821
:1036C000000003208DF801008DF8020001208DF824
:1036D0000300684602F0A3FC07B000BD2DE9F041ED
:1036E00004460D46069E0020002101202FE0D84F01
:1036F00037F810C0471EDFF8588328F817C008F1C4
:10370000140737F81080471EDFF844C30CF1140C7F
:103710002CF817800CF1140737F81080471E0CF1B5
:10372000140C2CF817800CF1140737F81080471E82
:103730000CF1140C2CF817800CF1140737F81080DA
:10374000471E0CF1140C2CF81780471CF8B20A28FD
:10375000CDDBBF4F7C82FD847A87A7F84E30A7F877
:103760006260002005E0BA4F37F910703944471CF9
:10377000F8B20A28F7DB0A2791FBF7F7DFF8D4C283
:10378000ACF800700021002006E0B14F143737F983
:1037900010703944471CF8B20A28F6DB0A2791FB5F
:1037A000F7F700EE107AB8EEC00AAA4F87ED010ACB
:1037B0000021002006E0A64F283737F91070394461
:1037C000471CF8B20A28F6DB0A2791FBF7F700EE50
:1037D000107AB8EEC00A9F4F87ED020A0021002040
:1037E00006E09B4F3C3737F910703944471CF8B25C
:1037F0000A28F6DB0A2791FBF7F700EE107AB8EEFD
:10380000C00A944F87ED030A0021002006E0904F84
:10381000503737F910703944471CF8B20A28F6DBE4
:103820000A2791FBF7F700EE107AB8EEC00A894F2D
:1038300087ED040ABDE8F08138B540F22551834890
:1038400003F0B0FA00287DD0804803F0E9F98249FE
:10385000824A1278885481480078401C7F49087059
:103860000846007828286DD100200870002409E15E
:103870007948005D552866D17749601C085CAA2804
:10388000F9D1A01C085C5528F5D1E01C085CAA28D9
:10389000F1D17348006808B9012000E000207049A8
:1038A00008606D4904F10800095C6B4A401C105C1B
:1038B00001EB002039285CDB114604F10800095CAB
:1038C000401C105C01EB0020B0F5837F51DA1146FB
:1038D00004F10A00095C401C105C01EB0020002888
:1038E00047DB114604F10A00095C401C105C01EB47
:1038F0000020C0283DDC1146A01D095CE01D105CC5
:1039000001EB0020012834D11146A01D095CE01D07
:10391000105C01EB00204F498882114604F1080039
:10392000095C401C105C01EB00204A49C88211462A
:1039300004F10A00095C401C105C01EB00204549C1
:10394000088301E0A2E09CE0114604F10C00095C50
:10395000401C105C01EB00203E494883114604F1F5
:103960000E00095C401C105C01EB00203949888383
:1039700063E0394904F10800095C374A401C105CD7
:1039800001EB0020392858DB114604F10800095CDE
:10399000401C105C01EB0020B0F5837F4DDA11462E
:1039A00004F10A00095C401C105C01EB00200028B7
:1039B00043DB114604F10A00095C401C105C01EB7A
:1039C0000020C02839DC1146A01D095CE01D105CF8
:1039D00001EB0020022830D11146A01D095CE01D3A
:1039E000105C01EB00201B49C883114604F108005C
:1039F000095C401C105C01EB00201649088411464C
:103A000004F10A00095C401C105C01EB0020114924
:103A10004884114604F10C00095C401C105C01EB69
:103A200000200C498884114604F10E00095C401CFA
:103A3000105C01EB00200749C8840648808B00B267
:103A4000044D0FE00000024020A1070000100140DB
:103A500040050020F004002018050020CA010020C5
:103A60008402404200906D8B2BB2094D2D8B2AB2FF
:103A7000074DED8A29B2064DAD8A28B2FFF72EFE1A
:103A800003E0641C282CFFF6F3AE00BF38BD000035
:103A9000F004002000B58BB00121022002F097FE57
:103AA0000121042002F04AFE022206212A4802F0E7
:103AB00032FC02220721284802F02DFCC020099088
:103AC00002208DF8280003208DF8290000208DF8B1
:103AD0002A0001208DF82B0009A91F4802F090FB55
:103AE0005320ADF818000020ADF81A0042F2107013
:103AF00007900020ADF8200006A9184803F01DFC2F
:103B00006020ADF804000120ADF806000020ADF8FB
:103B1000100001A9114803F0A5FC01A90F4803F00A
:103B2000DAFC08210D4803F02AFE08210B4803F0B7
:103B30002FFE0121094803F06BFC0121074803F027
:103B400085FC0BB000BD054934310860704703495E
:103B5000383108607047000000080240000400404F
:103B600010B504466FF0040002F0A6FAE11704EB6A
:103B70005171C1F3C701394A11701046007800EB4A
:103B80004001C1EBC0104FF6FF7101EAC00034499B
:103B9000088010BD0146314A12784A434FF0E023B5
:103BA0005A6100229A611A46126942F001021A61B2
:103BB00000BF4FF0E022106900F001021AB100F4DA
:103BC0008032002AF5D04FF0E022126922F0010283
:103BD0004FF0E0231A6100229A6170470146204AA3
:103BE00012884A434FF0E0235A6100229A611A4634
:103BF000126942F001021A6100BF4FF0E022106921
:103C000000F001021AB100F48032002AF5D04FF022
:103C1000E022126922F001024FF0E0231A61002233
:103C20009A61704770B504464FF4077094FBF0F04A
:103C3000C6B24FF4077094FBF0F100FB114085B25F
:103C400005E04FF40770FFF7C9FF701EC6B2002EE3
:103C5000F7D115B12846FFF7C1FF70BDCC01002098
:103C6000CE01002010B58AB004460121880402F07C
:103C7000AEFD0121022002F061FD27208DF80C002D
:103C800002208DF80D0000208DF80E0001208DF827
:103C90000F0003A802F0C3F907220A21604802F0CE
:103CA0003AFB07220B215E4802F035FB4FF480609F
:103CB000019002208DF808008DF8090000208DF891
:103CC0000A0001208DF80B0001A9554802F098FA6E
:103CD0004FF40060019002208DF808008DF8090073
:103CE00001208DF80A0000208DF80B0001A94C4836
:103CF00002F086FA06940020ADF81C00ADF81E0014
:103D0000ADF82000ADF824000C20ADF82200002012
:103D1000ADF81000ADF812004FF40070ADF81400CB
:103D20000020ADF8160006A93E4802F0C2FE04A924
:103D30003C4802F030FF012240F22551394802F0A0
:103D4000F6FF0121374802F03CFF0AB010BD10B564
:103D50003448008800F0080018B13248001D00887F
:103D6000C4B240F225512F4803F01CF858B140F27C
:103D700025512C4803F051F82A48001D0088C4B290
:103D8000204602F060F840F22771264803F00AF856
:103D9000C0B1254801780078401C234A10702348A0
:103DA000405C2049091D08801046007820490978A8
:103DB000884207D11B480C30008820F08000194948
:103DC0000C31088010BD70B505460E4600240AE08F
:103DD000295D174802780078401C154B187013486D
:103DE0008154601CC4B2B442F2DB0E480C3000882F
:103DF00000F0800028B9012240F22771094802F042
:103E000096FF70BD00BF704700BF0A4A128802F0DB
:103E10004002002AF9D0C2B2064B9A8070470000D7
:103E20000004024000480040D0010020A40500200A
:103E3000D1010020001001401CB50121084602F00C
:103E40007DFC0620009001208DF8040000208DF8F4
:103E5000060003208DF8050001208DF80700694653
:103E60001E4802F0CDF906211C4802F045FA1CBD9F
:103E700010B501201A4908606420FFF7D3FE002026
:103E80001849C1F888026420FFF7CCFE01201449CC
:103E900008604FF4FA70FFF7C5FE00201149C1F821
:103EA000880210BD10B501200D49091F0860C82007
:103EB000FFF7B8FE00200B49C1F88402C820FFF7C5
:103EC000B1FE01200649091F0860C820FFF7AAFEBD
:103ED00000200449C1F8840210BD00000000024027
:103EE000880240420000404210B5F94B196000239F
:103EF000F84CC4F89032002216E00023F44C0C3445
:103F0000236000F080031BB10123241F236003E022
:103F10000023EF4C083423600123ED4C0C34236064
:103F20004306180E531CDAB2082AE6DB0123E84CDC
:103F300010342360E74CC4F8803210BD30B5002443
:103F40001CE004F1B001C8B20021FFF7CDFF002151
:103F50000846FFF7C9FF00211020FFF7C5FF002525
:103F600008E0DD4901EBC501085D0121FFF7BCFF59
:103F7000681CC5B2802DF4DB601CC4B2082CE0DBE9
:103F800030BDF0B5144600267F2801DC3F2900DD56
:103F9000F0BD0B46CF1701EB5777FF10C7F10707AE
:103FA000FAB2CF1701EB5777FF10A1EBC707FDB2AD
:103FB000C5F107070123BB40DEB24CB1C64B03EB92
:103FC000C0039B5C3343C44F07EBC007BB5408E0FE
:103FD000C14B03EBC0039B5CB343BF4F07EBC00770
:103FE000BB5400BFD4E72DE9F84F80460F46164674
:103FF0001C46BA462046E31704EB5373DB102146F8
:104000004FEAE47C04EB5C7C4FEAEC0CA4EBCC0CB8
:10401000BCF1000F02D04FF0010C01E04FF0000C9A
:104020006344224604EBD27C4FEA6C0C03FB0CF396
:1040300003F0FF0BA6F12000C6B200254EE00C2CC9
:1040400007D106EB4600A54901EB8000405D0090DA
:1040500013E0102C05D1A24800EB0610405D009043
:104060000BE0182C07D106EBC6009E4901EB80003F
:10407000405D009001E0BDE8F88F4FF0000927E0B7
:10408000009800F0800028B1394640460A9AFFF7B0
:1040900078FF09E00A9808B9012000E000200246F4
:1040A00039464046FFF76DFF00984006000E00902D
:1040B000781CC7B2A7EB0A00A04205D1574608F109
:1040C000010000F0FF0806E009F1010000F0FF091F
:1040D000B9F1080FD4DB00BF681CC5B25D45AEDB8B
:1040E00000BFC8E730B500240CE0002506E0002042
:1040F000794901EBC5010855681CC5B2802DF6DB76
:10410000601CC4B2082CF0DBFFF718FF30BDF8B517
:1041100006460F4615461C4621E004EBD4714910B3
:10412000C1F18001B14202DA00263819C7B2C4F1E8
:104130004000B84204DA002006460746FFF7D2FFE7
:10414000012000902A78234639463046FFF74BFF7E
:10415000204604EBD07106EB6101CEB26D1C2878CD
:104160007E2802DC28782028D7DAF8BD00B5102395
:104170005DA200211846FFF7CAFF0C235CA21021A4
:104180000020FFF7C4FF0C235CA21C210020FFF7D6
:10419000BEFF0C235BA228210020FFF7B8FF0C23F1
:1041A0005BA234210020FFF7B2FFFFF7C7FE00BD7E
:1041B00010B50246012000E050430B1EA1F101049E
:1041C000E1B2F9D110BD2DE9FF4F81B0814617460C
:1041D0001E460E9D4FF0000A002F48DA7F42012054
:1041E0002B462D22009048460299FFF7FCFE002442
:1041F0003AE0301B401EC1B20A20FFF7D9FFB7FBDF
:10420000F0F00A21B0FBF1F201FB1208BAF1000F45
:1042100017D1701EA04214DDB8F1000F0FD101209C
:10422000AB4605EBDB71491001FB0491091D0090C1
:10423000C8B22B4620220299FFF7D5FE12E04FF0BC
:10424000010A0120AB4605EBDB71491001FB04912B
:104250000090C8B208F13001CAB22B460299FFF7AC
:10426000C2FE00BF601CC4B2B442C2DB6DE0002FCE
:104270006BDB01202B462022009048460299FFF775
:10428000B2FE00245FE0301B401EC1B20A20FFF7DF
:104290008FFFB7FBF0F00A21B0FBF1F201FB12082F
:1042A000BAF1000F3CD1701EA04239DDB8F1000F09
:1042B00034D10120AB4605EBDB71491001FB0491C1
:1042C0000090C8B22B4620220299FFF78CFE38E0FE
:1042D0008002414200004142A4070020EC91000806
:1042E00060960008509C00084D4F444500000000B7
:1042F0007369673A202020200000000058203A20EF
:10430000202020005920203A2020202000000000FA
:104310004865696768743A20202020004FF0010A40
:104320000120AB4605EBDB71491001FB04910090C5
:10433000C8B208F13001CAB22B460299FFF753FE0A
:1043400000BF601CC4B2B4429DDB05B0BDE8F08F75
:1043500008B50C200423009084480278002128200E
:10436000FFF731FF0C2000908148028804231021C0
:104370002420FFF728FF0C2000907D4890ED010AD3
:10438000BDEEC00A10EE102A04231C212420FFF7E2
:104390001AFF0C200090764890ED020ABDEEC00A8C
:1043A00010EE102A042328212420FFF70CFF0C20F4
:1043B00000906F4890ED040ABDEEC00A10EE102A7E
:1043C000042334212420FFF7FEFEFFF7B7FD08BDCC
:1043D00000B500218D20FFF787FD00211420FFF795
:1043E00083FD0021AF20FFF77FFD00BD00B5002158
:1043F0008D20FFF779FD00211020FFF775FD0021CA
:10440000AE20FFF771FD00BD2DE9F04706460F46CF
:1044100090469946DDF820A034460CE03D4606E083
:10442000524629462046FFF7ACFD681CC5B24D45F3
:10443000F6DD601CC4B24445F0DDFFF77FFDBDE84A
:10444000F0871CB50121042002F078F91F200090AC
:1044500001208DF8040000208DF8060003208DF85F
:10446000050001208DF807006946424801F0C8FEAA
:104470000120414908604149C1F88C023E49083198
:1044800008603D49083908600020091D0860642063
:10449000FFF7C8FB01203949C1F884020021AE2092
:1044A000FFF722FD0021D520FFF71EFD002150203F
:1044B000FFF71AFD0021A820FFF716FD00213F207D
:1044C000FFF712FD0021D320FFF70EFD0021084663
:1044D000FFF70AFD00214020FFF706FD00218D2097
:1044E000FFF702FD00211420FFF7FEFC0021202031
:1044F000FFF7FAFC00210220FFF7F6FC0021A120C3
:10450000FFF7F2FC0021C020FFF7EEFC0021DA20CB
:10451000FFF7EAFC00211220FFF7E6FC00218120D2
:10452000FFF7E2FC0021EF20FFF7DEFC0021D9209D
:10453000FFF7DAFC0021F120FFF7D6FC0021DB2099
:10454000FFF7D2FC00213020FFF7CEFC0021A42091
:10455000FFF7CAFC0021A620FFF7C6FC0021AF2010
:10456000FFF7C2FCFFF7BEFD1CBD000022000020CB
:10457000F00400200008024088024142000041424D
:104580007FB5684602F009F84FF47A710198B0FBE4
:10459000F1F04549086008460068C4082146481EF5
:1045A000B0F1807F00D31BE0481E4FF0E022506145
:1045B00050170F22002807DA13071E0E3B4B00F09E
:1045C0000F052D1F5E5503E013071D0E384B1D54BC
:1045D00000BF00204FF0E02290610720106100BF73
:1045E0006FF0040001F068FD7FBD00BF3148016835
:1045F0004FF0E02082692F4800688142F6D12A48B6
:10460000006800EB4003C3EBC010C2EBC000264BB8
:104610001B68B0FBF3F001EB4103C3EBC11300EBEC
:10462000C30070477FB505460C460121084602F0DD
:10463000CEF80295ADF804400020ADF80600ADF8C4
:104640000C0001A94FF0804002F077FE012188079D
:1046500002F0DEFE01221146900703F00FFB01215C
:10466000880702F0F3FE1C208DF8000001208DF871
:10467000010003208DF8020001208DF80300684638
:1046800001F0CDFC7FBD10B50121880703F00DFBC3
:10469000012807D10121800703F018FB01218807B9
:1046A00003F000FB10BD0000DC01002018ED00E06D
:1046B00000E400E0D801002010B5002106E0062249
:1046C00000BF131EA2F10102FBD1491C8142F6D3A7
:1046D00010BD1CB50121022002F030F8102000901E
:1046E00001208DF8040000208DF8060003208DF8CD
:1046F00005006946C14801F083FD1021BF4801F063
:10470000FDFD1CBD1CB50121084602F017F84FF451
:10471000C050009001208DF804008DF806000320A1
:104720008DF805006946B64801F06AFD1CBD1CB550
:104730004FF40060009001208DF804008DF8060011
:1047400003208DF805006946AD4801F059FD1CBDF8
:104750001CB54FF40060009000208DF804008DF827
:1047600006008DF8070002208DF805006946A44870
:1047700001F046FD1CBD10B5FFF7D9FF4FF40061F5
:104780009F4801F0B9FD4FF480519D4801F0B4FD00
:104790000120FFF791FF4FF40061994801F0AEFD51
:1047A0000120FFF789FF4FF48051954801F0A6FDE5
:1047B00010BD10B5FFF7BBFF4FF48051904801F0DA
:1047C0009DFD4FF400618E4801F098FD0120FFF738
:1047D00073FF4FF480518A4801F08EFD4FF4006161
:1047E000874801F089FD0120FFF766FF10BD10B575
:1047F0000446FFF79CFF2CB14FF40061804801F0A4
:104800007BFD04E04FF400617D4801F077FD4FF43B
:1048100080517B4801F070FD0120FFF74DFF4FF400
:104820008051774801F06AFD0120FFF745FF10BD78
:1048300010B54FF47A744FF40061714801F05CFDDB
:10484000FFF786FF0120FFF737FF4FF480516C48D8
:1048500001F052FD0120FFF72FFF07E0601E80B23C
:10486000041E03D0FFF7A5FFFF2010BD4FF4006129
:10487000634801F027FD0028F0D14FF480516048D3
:1048800001F03CFD0020F0E770B50446FFF74FFF54
:104890004FF480515A4801F031FD002521E004F029
:1048A000800028B14FF40061554801F025FD04E077
:1048B0004FF40061524801F021FD6006040E012012
:1048C000FFF7FAFE4FF480514D4801F015FD01202D
:1048D000FFF7F2FE4FF48051494801F00FFD681CCC
:1048E000C5B2082DDBDB70BD70B50024FFF730FFCB
:1048F00000251BE04FF48051414801F0FFFC0120EE
:10490000FFF7DAFE4FF480513D4801F0F5FC6006F8
:10491000040E4FF400613A4801F0D4FC08B1601C69
:10492000C4B20120FFF7C8FE681CC5B2082DE1DB48
:104930004FF48051324801F0E1FC204670BD70B563
:1049400006460C461546FFF716FF3046FFF79CFF5C
:10495000FFF76EFFFF2800D170BD2046FFF794FFE0
:10496000FFF766FFFF2800D1F6E72846FFF78CFF28
:10497000FFF75EFFFF2800D1EEE7FFF71AFF0020E8
:10498000EAE72DE9F04106460F4614469846FFF740
:10499000F2FE3046FFF778FFFFF74AFFFF2801D10C
:1049A000BDE8F0813846FFF76FFFFFF741FFFF28B2
:1049B00000D1F5E7FFF7DFFE711CC8B2FFF764FF17
:1049C000FFF736FFFF2800D1EAE7002508E0FFF7F0
:1049D0008BFF20700020FFF70AFF641C681CC5B223
:1049E000A8F10100A842F2DCFFF77EFF2070012051
:1049F000FFF7FDFEFFF7DDFE0020D1E700040240D7
:104A00000000024070B505460C462146F748FFF706
:104A1000DAF970BD2DE9F04105460E460027AA20BF
:104A2000F24908704870EF2088700220C87008466C
:104A300005714671002405E0EC48005D3844C7B2BA
:104A4000601CC4B2062CF7DBE84887710721FFF72A
:104A5000D9FFBDE8F0812DE9F04105460E4600275B
:104A6000AA20E24908704870EE2088700220C870C1
:104A7000084605714671002405E0DC48005D3844B5
:104A8000C7B2601CC4B2062CF7DBD8488771072177
:104A9000FFF7B8FFBDE8F0812DE9F0472DED028B5F
:104AA00082B006460F4690469946B0EE408A0024F2
:104AB000A246AA222146641CCC4842542146641CCA
:104AC000425404222146641C425400222146641CA4
:104AD00042542146641C46542146641C4754CDF878
:104AE00000809DF803202146641C42549DF802205A
:104AF0002046611CCCB2BD490A549DF801202146D4
:104B0000601CC4B2B94842549DF800202146601C84
:104B1000C4B2B6484254CDF800909DF80320204618
:104B2000611CCCB2B1490A549DF802202046611C98
:104B3000CCB2AE490A549DF801202046611CCCB28B
:104B4000AA490A549DF800202046611CCCB2A7490E
:104B50000A549FEDA70A28EE000ABDEEC00A10EE27
:104B6000100A00B201909DF805202046611CCCB2CD
:104B70009E490A549DF804202046611CCCB29B49F2
:104B80000A54201FC870002506E09848405D504434
:104B900000F0FF0A681CC5B2A542F6DB2046611C86
:104BA000CCB2924901F800A021469048FFF72AFFB5
:104BB00002B0BDEC028BBDE8F087F0B52DED0A8B9D
:104BC00081B00646B0EE408AF0EE608AB0EE419ABF
:104BD000F0EE619AB0EE42AAF0EE62AAB0EE43BAED
:104BE000F0EE63BAB0EE44CA00240027AA222146A0
:104BF000641C7E4842542146641C425406F10F0056
:104C0000C2B22146641C7948425400222146641CE9
:104C100042549FED780A28EE000ABDEEC00A10EE5D
:104C2000100A00B200909DF801202146641C6F48D4
:104C300042549DF800202146641C42549FED6D0AA9
:104C400028EE800ABDEEC00A10EE100A00B20090F5
:104C50009DF801202146641C644842549DF80020C0
:104C60002046611CCCB261490A549FED620A29EECC
:104C7000000ABDEEC00A10EE100A00B200909DF8C6
:104C800001202046611CCCB258490A549DF80020EE
:104C90002046611CCCB255490A549FED560A29EEB4
:104CA000800ABDEEC00A10EE100A00B200909DF816
:104CB00001202046611CCCB24C490A549DF80020CA
:104CC0002046611CCCB249490A549FED4A0A2AEE9B
:104CD000000ABDEEC00A10EE100A00B200909DF866
:104CE00001202046611CCCB240490A549DF80020A6
:104CF0002046611CCCB23D490A549FED3E0A2AEE83
:104D0000800ABDEEC00A10EE100A00B200909DF8B5
:104D100001202046611CCCB234490A549DF8002081
:104D20002046611CCCB231490A549FED320A2BEE69
:104D3000000ABDEEC00A10EE100A00B200909DF805
:104D400001202046611CCCB228490A549DF800205D
:104D50002046611CCCB225490A549FED260A2BEE51
:104D6000800ABDEEC00A10EE100A00B200909DF855
:104D700001202046611CCCB21C490A549DF8002039
:104D80002046611CCCB219490A549FED1A0A2CEE38
:104D9000000ABDEEC00A10EE100A00B200909DF8A5
:104DA00001202046611CCCB210490A549DF8002015
:104DB0002046611CCCB20D490A54201FC870002542
:104DC00005E00A48405D3844C7B2681CC5B2A54238
:104DD000F7DB2046611CCCB204490F54214603483E
:104DE000FFF710FE01B0BDEC0A8BF0BDB80B002040
:104DF0000000C84200007A442DE9F84306460F46F9
:104E00000024A046AA222146641CFE4842542146A2
:104E1000641C425405222146641C4254002221464F
:104E2000641C425400969DF801202146641C4254A3
:104E30009DF800202146641C425400979DF80120F3
:104E40002146641C42549DF800202046611CCCB2CF
:104E5000EC490A54201FC870002506E0E948405D6F
:104E6000404400F0FF08681CC5B2A542F6DB2046AE
:104E7000611CCCB2E34901F800802146E148FFF70C
:104E8000C1FDBDE8F8837FB500240026AA22214693
:104E9000641CDC4842542146641C425406222146CC
:104EA000641C425400222146641C42549DF8012097
:104EB0002146641C42549DF800202146641C425443
:104EC0009DF805202146641C42549DF8042020468C
:104ED000611CCCB2CB490A549DF809202046611CC4
:104EE000CCB2C8490A549DF808202046611CCCB2B7
:104EF000C4490A549DF80D202046611CCCB2C1491A
:104F00000A549DF80C202046611CCCB2BD490A54BD
:104F10009DF821202046611CCCB2BA490A549DF864
:104F200020202046611CCCB2B6490A549DF82520A9
:104F30002046611CCCB2B3490A549DF82420204677
:104F4000611CCCB2AF490A549DF829202046611C4F
:104F5000CCB2AC490A549DF828202046611CCCB242
:104F6000A8490A549DF82D202046611CCCB2A549C1
:104F70000A549DF82C202046611CCCB2A1490A5449
:104F8000201FC870002505E09E48405D3044C6B231
:104F9000681CC5B2A542F7DB2046611CCCB299491A
:104FA0000E5421469748FFF72DFD7FBD7FB50024A5
:104FB0000026AA222146641C924842542146641CC1
:104FC000425403222146641C425400222146641CA0
:104FD00042549DF801202146641C42549DF8002053
:104FE0002146641C42549DF805202146641C42540D
:104FF0009DF804202046611CCCB282490A549DF8D9
:1050000009202146601CC4B27E4842549DF8082005
:105010002046611CCCB27B490A549DF80D202046E5
:10502000611CCCB277490A549DF80C202046611CC3
:10503000CCB274490A549DF821202046611CCCB2A0
:1050400070490A549DF820202046611CCCB26D495D
:105050000A549DF825202146601CC4B26948425478
:105060009DF824202046611CCCB266490A549DF864
:1050700029202046611CCCB262490A549DF82820A0
:105080002146601CC4B25F4842549DF82D20204642
:10509000611CCCB25B490A549DF82C202046611C4F
:1050A000CCB258490A549DF831202046611CCCB23C
:1050B00054490A549DF830202046611CCCB2514915
:1050C0000A549DF835202046611CCCB24D490A5443
:1050D0009DF834202046611CCCB24A490A54201F56
:1050E000C870002505E04748405D3044C6B2681CE2
:1050F000C5B2A542F7DB2046611CCCB241490E5433
:1051000021464048FFF77EFC7FBD2DE9F84F06465B
:105110000F4690469946DDF828B00024A246AA2200
:105120002146641C374842542146641C42540222E2
:105130002146641C425400222146641C42540096BD
:105140009DF801202146641C42549DF80020214610
:10515000641C425400979DF801202146641C42546F
:105160009DF800202046611CCCB226490A54CDF897
:1051700000809DF801202046611CCCB221490A54D0
:105180009DF800202046611CCCB21E490A54CDF87F
:1051900000909DF801202046611CCCB219490A54A8
:1051A0009DF800202046611CCCB216490A54CDF867
:1051B00000B09DF801202046611CCCB211490A5470
:1051C0009DF800202046611CCCB20E490A540B9871
:1051D00000909DF801202046611CCCB209490A5478
:1051E0009DF800202046611CCCB206490A540C9858
:1051F00000909DF801202046611CCCB201490A5460
:1052000002E00000B80B00209DF800202046611C41
:10521000CCB2FE490A540D9800909DF8012020461A
:10522000611CCCB2F9490A549DF800202046611C4B
:10523000CCB2F6490A540E9800909DF80120204601
:10524000611CCCB2F1490A549DF800202046611C33
:10525000CCB2EE490A54002000909DF8012020466F
:10526000611CCCB2E9490A549DF800202046611C1B
:10527000CCB2E6490A54201FC870002506E0E34876
:10528000405D504400F0FF0A681CC5B2A542F6DB41
:105290002046611CCCB2DD4901F800A02146DB4864
:1052A000FFF7B0FBBDE8F88F70B52DED048B82B031
:1052B000B0EE408AF0EE608AB0EE419A00240026FB
:1052C000AA222146641CD14842542146641C4254FF
:1052D0000B222146641C425400222146641C425485
:1052E0009FEDCB0A28EE000ABDEEC00A10EE100AB0
:1052F00000B201909DF805202146641CC348425429
:105300009DF804202146641C42549FEDC10A28EEFA
:10531000800ABDEEC00A10EE100A00B201909DF89E
:1053200005202146641CB94842549DF804202046BB
:10533000611CCCB2B5490A549FEDB50A29EE000AAA
:10534000BDEEC00A10EE100A00B201909DF80520D3
:105350002046611CCCB2AD490A549DF80420204679
:10536000611CCCB2A9490A54201FC870002505E071
:10537000A648405D3044C6B2681CC5B2A542F7DB02
:105380002046611CCCB2A1490E5421469F48FFF72C
:1053900039FB02B0BDEC048B70BD2DE9F0432DED5F
:1053A000048B83B0B0EE408AF0EE608AB0EE419A92
:1053B00006460F46904600240196A146AA222146A1
:1053C000641C924842542146641C425401222146E6
:1053D000641C425400222146641C42549FED8D0AF5
:1053E00028EE000ABDEEC00A10EE100A00B20290CC
:1053F0009DF809202146641C844842549DF80820E9
:105400002146641C42549FED830A28EE800ABDEEBB
:10541000C00A10EE100A00B202909DF80920214641
:10542000641C7A4842549DF808202046611CCCB286
:1054300076490A549FED770A29EE000ABDEEC00AAC
:1054400010EE100A00B202909DF809202046611C5F
:10545000CCB26E490A549DF808202046611CCCB29B
:105460006A490A549DF807202046611CCCB267495E
:105470000A549DF806202046611CCCB263490A54A8
:105480009DF805202046611CCCB260490A549DF865
:1054900004202046611CCCB25C490A542046611CA1
:1054A000CCB25A490F542046611CCCB2574901F87E
:1054B0000080201FC870002506E05448405D484425
:1054C00000F0FF09681CC5B2A542F6DB2046611C4E
:1054D000CCB24E4901F8009021464C48FFF792FAB1
:1054E00003B0BDEC048BBDE8F0832DE9FF41064617
:1054F00000240027AA222146641C44484254214625
:10550000641C425400222146641C42542146641CFF
:1055100042542146641C46549DF805202146641CD3
:1055200042549DF804202146641C42549DF80920F1
:105530002046611CCCB235490A549DF8082020460B
:10554000611CCCB231490A549DF80D202146601CE3
:10555000C4B22E4842549DF80C202046611CCCB2A7
:105560002A490A549DF829202046611CCCB22749BB
:105570000A549DF828202046611CCCB223490A54C5
:10558000201FC870002505E02048405D3844C7B2A0
:10559000681CC5B2A542F7DB2046611CCCB21B4992
:1055A0000F5421461948FFF72DFABDE8FF8110B5C9
:1055B0002DED0E8B86B0184800781849097890FBBD
:1055C000F1F201FB120115480078401E814202D120
:1055D000012013494871104800781249097890FB5E
:1055E000F1F201FB12010F480078401E814202D106
:1055F00001200B498871084800780B49097890FB15
:10560000F1F201FB1201084800780FE0B80B00200E
:10561000CDCCCC3D0000C842E4010020E5010020D3
:10562000A40B0020E6010020E7010020801E81423B
:1056300002D10120FE494874FE480078FE490978ED
:1056400090FBF1F201FB1201FB480078401E814201
:1056500002D10120F6490871F6480078F749097827
:1056600090FBF1F201FB1201F4480078401E8142E8
:1056700002D10120EE494873EE480078F0490978DC
:1056800090FBF1F201FB1201ED480078801E81428F
:1056900002D10120E649C873E6480078E949097853
:1056A00090FBF1F201FB1201E6480078801E814276
:1056B00002D10120DE490874DE480078E249097809
:1056C00090FBF1F201FB1201DF480078C01E81421D
:1056D00002D10120D6498874D6480078DB49097880
:1056E00090FBF1F201FB1201D8480078C01E814204
:1056F00004D1CF48C07C401CCD49C874CD48007847
:10570000401CC0B2CB490870C82801DD00200870D9
:10571000C748007838B1C64A51781078FFF79BF92E
:105720000020C3490870C248807848B10020C049B1
:105730008870C7480178C7480078FFF76BF999E28D
:10574000BB48C07860B10020B949C8704FF4C87335
:1057500064224FF4967100900420FFF7C6FE89E2A0
:10576000B3480079A8B10020B1490871BA48D0ED1A
:105770000C1AB0EE611AD0ED0D1AF0EE610AD0ED00
:105780000E1AB0EE610A002211461046FFF705FE20
:1057900070E2A748807C58B10020A54988749FED2D
:1057A000AF1ADFEDAE0A9FEDAD0AFFF77DFD61E2B6
:1057B0009F48407C18B100209D4948745AE29C489B
:1057C0004079A0B300209A494871A54890ED020A9B
:1057D000F2EE040A20EE200ABDEEC00A10EE100A16
:1057E00000B29F4991ED010AF2EE040A20EE200A70
:1057F000BDEEC00A10EE101A09B200220192CDE9E6
:105800000221134600920490964890ED000ABDEEE6
:10581000C00A10EE100A01B2934890ED000ABDEEE6
:10582000C00A10EE100A00B2FFF76FFC22E2FFE799
:105830007F48807918B100207D4988711AE27C4840
:10584000407B48B300207A49487340F2DC50029014
:105850000390049005908548407A00F2DC5083491B
:10586000097A01F2DC51814CCDE90010E48804F2A0
:10587000DC54A3B27D4CA48804F2DC54A2B27B4C6D
:10588000648804F2DC54A1B2784C248804F2DC541D
:10589000A0B2FFF78BFBEDE16548C07BA8B100200B
:1058A0006349C873009001900290714C0390E488A2
:1058B000A3B26F4CA488A2B26D4C6488A1B26C4CA8
:1058C0002488A0B2FFF7DFFAD4E15948007C48B140
:1058D0000020574908744FF4E47166480078FFF7D8
:1058E0008BFAC7E15248C07900287BD0002050498C
:1058F000C871614890ED050A10EE101A084602F0D2
:10590000F7FB41EC1C0B9FED5D0B53EC102B02F0F1
:105910005FFB41EC1B0B02F02FFC08EE100A56480F
:1059200090ED040A10EE101A084602F0E1FB41EC7B
:105930001C0B9FED520B53EC102B02F049FB41EC7A
:105940001B0B02F019FC08EE900A4B4890ED030A7D
:1059500010EE101A084602F0CBFB41EC1C0B9FED39
:10596000470B53EC102B02F033FB41EC1B0B02F006
:1059700003FC09EE100A434890ED020A10EE101ADB
:10598000084602F0B5FB41EC1C0B9FED3C0B53ECC1
:10599000102B02F01DFB41EC1B0B02F0EDFB09EE9E
:1059A000900A384890ED010A10EE101A084602F0ED
:1059B0009FFB41EC1C0B9FED310B53EC102B02F0C5
:1059C00007FB41EC1B0B02F0D7FB0AEE100A2D4837
:1059D00090ED000A10EE101A084602F089FB41EC27
:1059E0001C0B00E091E09FED250B53EC102B02F017
:1059F000EFFA41EC1B0B02F0BFFB0AEE900A1E48C7
:105A000090ED020A10EE101A084602F071FB41EC0C
:105A10001C0B9FED1A0B53EC102B02F0D9FA41EC42
:105A20001B0B02F0A9FB0DEE100A13482CE000003E
:105A3000A40B0020E4010020E8010020E90100207F
:105A4000EA010020EB010020EC010020ED01002024
:105A5000E1010020E00100203C02002000000000E5
:105A6000F0040020700100206C010020820300205F
:105A7000E8000020A8010020D4020020FCA9F1D2F7
:105A80004D62503F7C02002090ED010A10EE101A8A
:105A9000084602F02DFB41EC1C0B1FED080B53ECEC
:105AA000102B02F095FA41EC1B0B02F065FB0DEE9A
:105AB000900AF74890ED000A10EE101A084602F01E
:105AC00017FB41EC1C0B1FED130B53EC102B02F0DA
:105AD0007FFA41EC1B0B02F04FFB0EEE100AB0EE0A
